{
    "contractName": "SimpleStorage",
    "abi": [
        {
            "inputs": [],
            "name": "getFavouriteNumber",
            "outputs": [
                {
                    "internalType": "uint256",
                    "name": "",
                    "type": "uint256"
                }
            ],
            "stateMutability": "view",
            "type": "function"
        },
        {
            "inputs": [
                {
                    "internalType": "uint256",
                    "name": "_favouriteNumber",
                    "type": "uint256"
                }
            ],
            "name": "store",
            "outputs": [],
            "stateMutability": "nonpayable",
            "type": "function"
        }
    ],
    "bytecode": "6080604052600360005534801561001557600080fd5b5060ac806100246000396000f3fe6080604052348015600f57600080fd5b506004361060325760003560e01c80636057361d146037578063e03aefbf146049575b600080fd5b60476042366004605e565b600055565b005b60005460405190815260200160405180910390f35b600060208284031215606f57600080fd5b503591905056fea264697066735822122098f39b24bf530afca5360177ec867b6387321776115b84add1726240fa5c442564736f6c63430008130033",
    "sourcePath": "d:/PP/SmartContracts/web_py_tutorial_01/SimpleStorage.sol",
    "compiler": {
        "name": "solc",
        "version": "0.8.19+commit.7dd6d404"
    },
    "functionHashes": {
        "getFavouriteNumber()": "e03aefbf",
        "store(uint256)": "6057361d"
    },
    "gasEstimates": {
        "creation": {
            "codeDepositCost": "34400",
            "executionCost": "22193",
            "totalCost": "56593"
        },
        "external": {
            "getFavouriteNumber()": "2268",
            "store(uint256)": "22290"
        }
    }
}